{
  "_format": "hh-sol-artifact-1",
  "contractName": "Challenge1",
  "sourceName": "contracts/Challenge1.sol",
  "abi": [
    {
      "inputs": [],
      "stateMutability": "nonpayable",
      "type": "constructor"
    },
    {
      "inputs": [],
      "name": "getFlag",
      "outputs": [
        {
          "internalType": "string",
          "name": "",
          "type": "string"
        }
      ],
      "stateMutability": "view",
      "type": "function"
    },
    {
      "inputs": [],
      "name": "getMessage",
      "outputs": [
        {
          "internalType": "string",
          "name": "",
          "type": "string"
        }
      ],
      "stateMutability": "view",
      "type": "function"
    },
    {
      "inputs": [
        {
          "internalType": "string",
          "name": "_message",
          "type": "string"
        }
      ],
      "name": "setMessage",
      "outputs": [],
      "stateMutability": "nonpayable",
      "type": "function"
    }
  ],
  "bytecode": "0x60806040523480156200001157600080fd5b506040516020016200002390620002ba565b6040516020818303038152906040526000908051906020019062000049929190620001af565b506040516020016200005b9062000461565b6040516020818303038152906040526001908051906020019062000081929190620001af565b50600160405160200162000096919062000831565b60405160208183030381529060405260019080519060200190620000bc929190620001af565b506001604051602001620000d1919062000b3f565b60405160208183030381529060405260019080519060200190620000f7929190620001af565b5060016040516020016200010c919062000d1a565b6040516020818303038152906040526001908051906020019062000132929190620001af565b50600160405160200162000147919062000fe5565b604051602081830303815290604052600190805190602001906200016d929190620001af565b506001604051602001620001829190620012ca565b60405160208183030381529060405260019080519060200190620001a8929190620001af565b5062001399565b828054620001bd90620004db565b90600052602060002090601f016020900481019282620001e157600085556200022d565b82601f10620001fc57805160ff19168380011785556200022d565b828001600101855582156200022d579182015b828111156200022c5782518255916020019190600101906200020f565b5b5090506200023c919062000240565b5090565b5b808211156200025b57600081600090555060010162000241565b5090565b600081905092915050565b7f57656c636f6d6520746f2057696e6a6120435446210000000000000000000000600082015250565b6000620002a26015836200025f565b9150620002af826200026a565b601582019050919050565b6000620002c78262000293565b9150819050919050565b7f6600000000000000000000000000000000000000000000000000000000000000600082015250565b6000620003096001836200025f565b91506200031682620002d1565b600182019050919050565b7f6c00000000000000000000000000000000000000000000000000000000000000600082015250565b6000620003596001836200025f565b9150620003668262000321565b600182019050919050565b7f6100000000000000000000000000000000000000000000000000000000000000600082015250565b6000620003a96001836200025f565b9150620003b68262000371565b600182019050919050565b7f6700000000000000000000000000000000000000000000000000000000000000600082015250565b6000620003f96001836200025f565b91506200040682620003c1565b600182019050919050565b7f7b00000000000000000000000000000000000000000000000000000000000000600082015250565b6000620004496001836200025f565b9150620004568262000411565b600182019050919050565b60006200046e82620002fa565b91506200047b826200034a565b915062000488826200039a565b91506200049582620003ea565b9150620004a2826200043a565b9150819050919050565b7f4e487b7100000000000000000000000000000000000000000000000000000000600052602260045260246000fd5b60006002820490506001821680620004f457607f821691505b602082108114156200050b576200050a620004ac565b5b50919050565b60008190508160005260206000209050919050565b600081546200053581620004db565b6200054181866200025f565b945060018216600081146200055f57600181146200057157620005a8565b60ff19831686528186019350620005a8565b6200057c8562000511565b60005b83811015620005a0578154818901526001820191506020810190506200057f565b838801955050505b50505092915050565b7f3800000000000000000000000000000000000000000000000000000000000000600082015250565b6000620005e96001836200025f565b9150620005f682620005b1565b600182019050919050565b7f3500000000000000000000000000000000000000000000000000000000000000600082015250565b6000620006396001836200025f565b9150620006468262000601565b600182019050919050565b7f3400000000000000000000000000000000000000000000000000000000000000600082015250565b6000620006896001836200025f565b9150620006968262000651565b600182019050919050565b7f6300000000000000000000000000000000000000000000000000000000000000600082015250565b6000620006d96001836200025f565b9150620006e682620006a1565b600182019050919050565b7f3200000000000000000000000000000000000000000000000000000000000000600082015250565b6000620007296001836200025f565b91506200073682620006f1565b600182019050919050565b7f3634360000000000000000000000000000000000000000000000000000000000600082015250565b6000620007796003836200025f565b9150620007868262000741565b600382019050919050565b7f3263390000000000000000000000000000000000000000000000000000000000600082015250565b6000620007c96003836200025f565b9150620007d68262000791565b600382019050919050565b7f3735640000000000000000000000000000000000000000000000000000000000600082015250565b6000620008196003836200025f565b91506200082682620007e1565b600382019050919050565b60006200083f828462000526565b91506200084c82620005da565b91506200085982620002fa565b915062000866826200062a565b915062000873826200067a565b91506200088082620006ca565b91506200088d826200071a565b91506200089a826200076a565b9150620008a782620007ba565b9150620008b4826200080a565b915081905092915050565b7f3133000000000000000000000000000000000000000000000000000000000000600082015250565b6000620008f76002836200025f565b91506200090482620008bf565b600282019050919050565b7f6665000000000000000000000000000000000000000000000000000000000000600082015250565b6000620009476002836200025f565b915062000954826200090f565b600282019050919050565b7f3300000000000000000000000000000000000000000000000000000000000000600082015250565b6000620009976001836200025f565b9150620009a4826200095f565b600182019050919050565b7f3600000000000000000000000000000000000000000000000000000000000000600082015250565b6000620009e76001836200025f565b9150620009f482620009af565b600182019050919050565b7f3765000000000000000000000000000000000000000000000000000000000000600082015250565b600062000a376002836200025f565b915062000a4482620009ff565b600282019050919050565b7f3766360000000000000000000000000000000000000000000000000000000000600082015250565b600062000a876003836200025f565b915062000a948262000a4f565b600382019050919050565b7f6562000000000000000000000000000000000000000000000000000000000000600082015250565b600062000ad76002836200025f565b915062000ae48262000a9f565b600282019050919050565b7f3039000000000000000000000000000000000000000000000000000000000000600082015250565b600062000b276002836200025f565b915062000b348262000aef565b600282019050919050565b600062000b4d828462000526565b915062000b5a82620008e8565b915062000b678262000938565b915062000b748262000988565b915062000b818262000988565b915062000b8e82620009d8565b915062000b9b8262000a28565b915062000ba88262000a78565b915062000bb58262000988565b915062000bc28262000ac8565b915062000bcf8262000b18565b915081905092915050565b7f5f00000000000000000000000000000000000000000000000000000000000000600082015250565b600062000c126001836200025f565b915062000c1f8262000bda565b600182019050919050565b7f3100000000000000000000000000000000000000000000000000000000000000600082015250565b600062000c626001836200025f565b915062000c6f8262000c2a565b600182019050919050565b7f4000000000000000000000000000000000000000000000000000000000000000600082015250565b600062000cb26001836200025f565b915062000cbf8262000c7a565b600182019050919050565b7f6c73000000000000000000000000000000000000000000000000000000000000600082015250565b600062000d026002836200025f565b915062000d0f8262000cca565b600282019050919050565b600062000d28828462000526565b915062000d358262000c03565b915062000d428262000c53565b915062000d4f8262000c53565b915062000d5c8262000c03565b915062000d698262000c03565b915062000d7682620006ca565b915062000d838262000ca3565b915062000d90826200034a565b915062000d9d8262000cf3565b915062000daa8262000c03565b915081905092915050565b7f7000000000000000000000000000000000000000000000000000000000000000600082015250565b600062000ded6001836200025f565b915062000dfa8262000db5565b600182019050919050565b7f7500000000000000000000000000000000000000000000000000000000000000600082015250565b600062000e3d6001836200025f565b915062000e4a8262000e05565b600182019050919050565b7f4c49430000000000000000000000000000000000000000000000000000000000600082015250565b600062000e8d6003836200025f565b915062000e9a8262000e55565b600382019050919050565b7f6d00000000000000000000000000000000000000000000000000000000000000600082015250565b600062000edd6001836200025f565b915062000eea8262000ea5565b600182019050919050565b7f3700000000000000000000000000000000000000000000000000000000000000600082015250565b600062000f2d6001836200025f565b915062000f3a8262000ef5565b600182019050919050565b7f4830440000000000000000000000000000000000000000000000000000000000600082015250565b600062000f7d6003836200025f565b915062000f8a8262000f45565b600382019050919050565b7f6f66000000000000000000000000000000000000000000000000000000000000600082015250565b600062000fcd6002836200025f565b915062000fda8262000f95565b600282019050919050565b600062000ff3828462000526565b9150620010008262000dde565b91506200100d8262000e2e565b91506200101a82620005da565b9150620010278262000e7e565b9150620010348262000c03565b9150620010418262000ece565b91506200104e8262000988565b91506200105b8262000f1e565b9150620010688262000f6e565b9150620010758262000c03565b9150620010828262000fbe565b91506200108f8262000c03565b915081905092915050565b7f5300000000000000000000000000000000000000000000000000000000000000600082015250565b6000620010d26001836200025f565b9150620010df826200109a565b600182019050919050565b7f5200000000000000000000000000000000000000000000000000000000000000600082015250565b6000620011226001836200025f565b91506200112f82620010ea565b600182019050919050565b7f5400000000000000000000000000000000000000000000000000000000000000600082015250565b6000620011726001836200025f565b91506200117f826200113a565b600182019050919050565b7f4300000000000000000000000000000000000000000000000000000000000000600082015250565b6000620011c26001836200025f565b9150620011cf826200118a565b600182019050919050565b7f4f4e000000000000000000000000000000000000000000000000000000000000600082015250565b6000620012126002836200025f565b91506200121f82620011da565b600282019050919050565b7f7400000000000000000000000000000000000000000000000000000000000000600082015250565b6000620012626001836200025f565b91506200126f826200122a565b600182019050919050565b7f7d00000000000000000000000000000000000000000000000000000000000000600082015250565b6000620012b26001836200025f565b9150620012bf826200127a565b600182019050919050565b6000620012d8828462000526565b9150620012e582620010c3565b9150620012f28262000ece565b9150620012ff8262000ca3565b91506200130c8262001113565b9150620013198262001163565b9150620013268262000c03565b91506200133382620011b3565b9150620013408262001203565b91506200134d8262001253565b91506200135a8262001113565b9150620013678262000ca3565b91506200137482620006ca565b9150620013818262001163565b91506200138e82620012a3565b915081905092915050565b61056380620013a96000396000f3fe608060405234801561001057600080fd5b50600436106100415760003560e01c8063368b877214610046578063ce6d41de14610062578063f963393014610080575b600080fd5b610060600480360381019061005b91906103d9565b61009e565b005b61006a6100b8565b60405161007791906104aa565b60405180910390f35b61008861014a565b60405161009591906104aa565b60405180910390f35b80600090805190602001906100b49291906101dc565b5050565b6060600080546100c7906104fb565b80601f01602080910402602001604051908101604052809291908181526020018280546100f3906104fb565b80156101405780601f1061011557610100808354040283529160200191610140565b820191906000526020600020905b81548152906001019060200180831161012357829003601f168201915b5050505050905090565b606060018054610159906104fb565b80601f0160208091040260200160405190810160405280929190818152602001828054610185906104fb565b80156101d25780601f106101a7576101008083540402835291602001916101d2565b820191906000526020600020905b8154815290600101906020018083116101b557829003601f168201915b5050505050905090565b8280546101e8906104fb565b90600052602060002090601f01602090048101928261020a5760008555610251565b82601f1061022357805160ff1916838001178555610251565b82800160010185558215610251579182015b82811115610250578251825591602001919060010190610235565b5b50905061025e9190610262565b5090565b5b8082111561027b576000816000905550600101610263565b5090565b6000604051905090565b600080fd5b600080fd5b600080fd5b600080fd5b6000601f19601f8301169050919050565b7f4e487b7100000000000000000000000000000000000000000000000000000000600052604160045260246000fd5b6102e68261029d565b810181811067ffffffffffffffff82111715610305576103046102ae565b5b80604052505050565b600061031861027f565b905061032482826102dd565b919050565b600067ffffffffffffffff821115610344576103436102ae565b5b61034d8261029d565b9050602081019050919050565b82818337600083830152505050565b600061037c61037784610329565b61030e565b90508281526020810184848401111561039857610397610298565b5b6103a384828561035a565b509392505050565b600082601f8301126103c0576103bf610293565b5b81356103d0848260208601610369565b91505092915050565b6000602082840312156103ef576103ee610289565b5b600082013567ffffffffffffffff81111561040d5761040c61028e565b5b610419848285016103ab565b91505092915050565b600081519050919050565b600082825260208201905092915050565b60005b8381101561045c578082015181840152602081019050610441565b8381111561046b576000848401525b50505050565b600061047c82610422565b610486818561042d565b935061049681856020860161043e565b61049f8161029d565b840191505092915050565b600060208201905081810360008301526104c48184610471565b905092915050565b7f4e487b7100000000000000000000000000000000000000000000000000000000600052602260045260246000fd5b6000600282049050600182168061051357607f821691505b60208210811415610527576105266104cc565b5b5091905056fea2646970667358221220a86d621eed9baa4dd200c9a6676a193e3d8770476a9f7b634b0e0859c1108acc64736f6c63430008090033",
  "linkReferences": {},
  "deployedLinkReferences": {}
}