{
  "_format": "hh-sol-artifact-1",
  "contractName": "Challenge3",
  "sourceName": "contracts/Challenge3.sol",
  "abi": [
    {
      "inputs": [],
      "stateMutability": "nonpayable",
      "type": "constructor"
    },
    {
      "inputs": [
        {
          "internalType": "string",
          "name": "article_name",
          "type": "string"
        }
      ],
      "name": "getArticle",
      "outputs": [
        {
          "internalType": "string",
          "name": "",
          "type": "string"
        }
      ],
      "stateMutability": "view",
      "type": "function"
    },
    {
      "inputs": [
        {
          "internalType": "string",
          "name": "_name",
          "type": "string"
        },
        {
          "internalType": "string",
          "name": "_description",
          "type": "string"
        },
        {
          "internalType": "int256",
          "name": "_price",
          "type": "int256"
        }
      ],
      "name": "sellArticle",
      "outputs": [],
      "stateMutability": "nonpayable",
      "type": "function"
    },
    {
      "inputs": [],
      "name": "setFlag",
      "outputs": [],
      "stateMutability": "nonpayable",
      "type": "function"
    }
  ],
  "bytecode": "0x608060405234801561001057600080fd5b50600a600460008060009054906101000a900473ffffffffffffffffffffffffffffffffffffffff1673ffffffffffffffffffffffffffffffffffffffff1673ffffffffffffffffffffffffffffffffffffffff16815260200190815260200160002081905550611bf5806100866000396000f3fe608060405234801561001057600080fd5b50600436106100415760003560e01c806362548c7b14610046578063a466666514610050578063dee41a2b14610080575b600080fd5b61004e61009c565b005b61006a600480360381019061006591906107b5565b6102c7565b60405161007791906118fb565b60405180910390f35b61009a600480360381019061009591906107f6565b6104a1565b005b33600660006101000a81548173ffffffffffffffffffffffffffffffffffffffff021916908373ffffffffffffffffffffffffffffffffffffffff1602179055506040516020016100ec906118ba565b60405160208183030381529060405260059080519060200190610110929190610608565b5060056040516020016101239190611791565b60405160208183030381529060405260059080519060200190610147929190610608565b50600560405160200161015a9190611547565b6040516020818303038152906040526005908051906020019061017e929190610608565b5060056040516020016101919190611603565b604051602081830303815290604052600590805190602001906101b5929190610608565b5060056040516020016101c891906116ca565b604051602081830303815290604052600590805190602001906101ec929190610608565b5060056040516020016101ff9190611475565b60405160208183030381529060405260059080519060200190610223929190610608565b50600560076000600660009054906101000a900473ffffffffffffffffffffffffffffffffffffffff1673ffffffffffffffffffffffffffffffffffffffff1673ffffffffffffffffffffffffffffffffffffffff16815260200190815260200160002090805461029390611ad8565b61029e92919061068e565b5060405180602001604052806000815250600590805190602001906102c4929190610608565b50565b60606040516020016102d890611863565b60405160208183030381529060405280519060200120826040516020016102ff919061145e565b60405160208183030381529060405280519060200120141561046357600660009054906101000a900473ffffffffffffffffffffffffffffffffffffffff1673ffffffffffffffffffffffffffffffffffffffff163373ffffffffffffffffffffffffffffffffffffffff1614156104625760076000600660009054906101000a900473ffffffffffffffffffffffffffffffffffffffff1673ffffffffffffffffffffffffffffffffffffffff1673ffffffffffffffffffffffffffffffffffffffff16815260200190815260200160002080546103dd90611ad8565b80601f016020809104026020016040519081016040528092919081815260200182805461040990611ad8565b80156104565780601f1061042b57610100808354040283529160200191610456565b820191906000526020600020905b81548152906001019060200180831161043957829003601f168201915b5050505050905061049c565b5b6040518060400160405280601381526020017f496d706572736f6e61746f7220416c657274210000000000000000000000000081525090505b919050565b336000806101000a81548173ffffffffffffffffffffffffffffffffffffffff021916908373ffffffffffffffffffffffffffffffffffffffff16021790555082600190805190602001906104f7929190610608565b50816002908051906020019061050e929190610608565b5080600381905550600081600460008060009054906101000a900473ffffffffffffffffffffffffffffffffffffffff1673ffffffffffffffffffffffffffffffffffffffff1673ffffffffffffffffffffffffffffffffffffffff1681526020019081526020016000205461058491906119ba565b1261060357600354600460008060009054906101000a900473ffffffffffffffffffffffffffffffffffffffff1673ffffffffffffffffffffffffffffffffffffffff1673ffffffffffffffffffffffffffffffffffffffff16815260200190815260200160002060008282546105fb9190611a4e565b925050819055505b505050565b82805461061490611ad8565b90600052602060002090601f016020900481019282610636576000855561067d565b82601f1061064f57805160ff191683800117855561067d565b8280016001018555821561067d579182015b8281111561067c578251825591602001919060010190610661565b5b50905061068a919061071b565b5090565b82805461069a90611ad8565b90600052602060002090601f0160209004810192826106bc576000855561070a565b82601f106106cd578054855561070a565b8280016001018555821561070a57600052602060002091601f016020900482015b828111156107095782548255916001019190600101906106ee565b5b509050610717919061071b565b5090565b5b8082111561073457600081600090555060010161071c565b5090565b600061074b6107468461194e565b61191d565b90508281526020810184848401111561076357600080fd5b61076e848285611a96565b509392505050565b60008135905061078581611ba8565b92915050565b600082601f83011261079c57600080fd5b81356107ac848260208601610738565b91505092915050565b6000602082840312156107c757600080fd5b600082013567ffffffffffffffff8111156107e157600080fd5b6107ed8482850161078b565b91505092915050565b60008060006060848603121561080b57600080fd5b600084013567ffffffffffffffff81111561082557600080fd5b6108318682870161078b565b935050602084013567ffffffffffffffff81111561084e57600080fd5b61085a8682870161078b565b925050604061086b86828701610776565b9150509250925092565b600061088082611993565b61088a818561199e565b935061089a818560208601611aa5565b6108a381611b97565b840191505092915050565b60006108b982611993565b6108c381856119af565b93506108d3818560208601611aa5565b80840191505092915050565b600081546108ec81611ad8565b6108f681866119af565b94506001821660008114610911576001811461092257610955565b60ff19831686528186019350610955565b61092b8561197e565b60005b8381101561094d5781548189015260018201915060208101905061092e565b838801955050505b50505092915050565b600061096b6001836119af565b91507f43000000000000000000000000000000000000000000000000000000000000006000830152600182019050919050565b60006109ab6001836119af565b91507f41000000000000000000000000000000000000000000000000000000000000006000830152600182019050919050565b60006109eb6001836119af565b91507f30000000000000000000000000000000000000000000000000000000000000006000830152600182019050919050565b6000610a2b6001836119af565b91507f63000000000000000000000000000000000000000000000000000000000000006000830152600182019050919050565b6000610a6b6001836119af565b91507f34000000000000000000000000000000000000000000000000000000000000006000830152600182019050919050565b6000610aab6001836119af565b91507f67000000000000000000000000000000000000000000000000000000000000006000830152600182019050919050565b6000610aeb6002836119af565b91507f6f720000000000000000000000000000000000000000000000000000000000006000830152600282019050919050565b6000610b2b6001836119af565b91507f70000000000000000000000000000000000000000000000000000000000000006000830152600182019050919050565b6000610b6b6001836119af565b91507f33000000000000000000000000000000000000000000000000000000000000006000830152600182019050919050565b6000610bab6001836119af565b91507f55000000000000000000000000000000000000000000000000000000000000006000830152600182019050919050565b6000610beb6002836119af565b91507f654d0000000000000000000000000000000000000000000000000000000000006000830152600282019050919050565b6000610c2b6001836119af565b91507f61000000000000000000000000000000000000000000000000000000000000006000830152600182019050919050565b6000610c6b6001836119af565b91507f72000000000000000000000000000000000000000000000000000000000000006000830152600182019050919050565b6000610cab6001836119af565b91507f45000000000000000000000000000000000000000000000000000000000000006000830152600182019050919050565b6000610ceb6001836119af565b91507f6e000000000000000000000000000000000000000000000000000000000000006000830152600182019050919050565b6000610d2b6001836119af565b91507f37000000000000000000000000000000000000000000000000000000000000006000830152600182019050919050565b6000610d6b6001836119af565b91507f6c000000000000000000000000000000000000000000000000000000000000006000830152600182019050919050565b6000610dab6001836119af565b91507f44000000000000000000000000000000000000000000000000000000000000006000830152600182019050919050565b6000610deb6001836119af565b91507f50000000000000000000000000000000000000000000000000000000000000006000830152600182019050919050565b6000610e2b6001836119af565b91507f4e000000000000000000000000000000000000000000000000000000000000006000830152600182019050919050565b6000610e6b6001836119af565b91507f4d000000000000000000000000000000000000000000000000000000000000006000830152600182019050919050565b6000610eab6001836119af565b91507f54000000000000000000000000000000000000000000000000000000000000006000830152600182019050919050565b6000610eeb6001836119af565b91507f4c000000000000000000000000000000000000000000000000000000000000006000830152600182019050919050565b6000610f2b6001836119af565b91507f7d000000000000000000000000000000000000000000000000000000000000006000830152600182019050919050565b6000610f6b6001836119af565b91507f59000000000000000000000000000000000000000000000000000000000000006000830152600182019050919050565b6000610fab6001836119af565b91507f76000000000000000000000000000000000000000000000000000000000000006000830152600182019050919050565b6000610feb6001836119af565b91507f65000000000000000000000000000000000000000000000000000000000000006000830152600182019050919050565b600061102b6001836119af565b91507f7b000000000000000000000000000000000000000000000000000000000000006000830152600182019050919050565b600061106b6001836119af565b91507f53000000000000000000000000000000000000000000000000000000000000006000830152600182019050919050565b60006110ab6001836119af565b91507f32000000000000000000000000000000000000000000000000000000000000006000830152600182019050919050565b60006110eb6001836119af565b91507f62000000000000000000000000000000000000000000000000000000000000006000830152600182019050919050565b600061112b6001836119af565b91507f31000000000000000000000000000000000000000000000000000000000000006000830152600182019050919050565b600061116b6001836119af565b91507f74000000000000000000000000000000000000000000000000000000000000006000830152600182019050919050565b60006111ab6001836119af565b91507f5f000000000000000000000000000000000000000000000000000000000000006000830152600182019050919050565b60006111eb6001836119af565b91507f35000000000000000000000000000000000000000000000000000000000000006000830152600182019050919050565b600061122b6002836119af565b91507f67690000000000000000000000000000000000000000000000000000000000006000830152600282019050919050565b600061126b6001836119af565b91507f66000000000000000000000000000000000000000000000000000000000000006000830152600182019050919050565b60006112ab6001836119af565b91507f39000000000000000000000000000000000000000000000000000000000000006000830152600182019050919050565b60006112eb6001836119af565b91507f38000000000000000000000000000000000000000000000000000000000000006000830152600182019050919050565b600061132b6001836119af565b91507f40000000000000000000000000000000000000000000000000000000000000006000830152600182019050919050565b600061136b6001836119af565b91507f69000000000000000000000000000000000000000000000000000000000000006000830152600182019050919050565b60006113ab6001836119af565b91507f56000000000000000000000000000000000000000000000000000000000000006000830152600182019050919050565b60006113eb6001836119af565b91507f64000000000000000000000000000000000000000000000000000000000000006000830152600182019050919050565b600061142b6001836119af565b91507f6b000000000000000000000000000000000000000000000000000000000000006000830152600182019050919050565b600061146a82846108ae565b915081905092915050565b600061148182846108df565b915061148c82610b9e565b915061149782610cde565b91506114a282610c9e565b91506114ad82610e1e565b91506114b88261095e565b91506114c382610c5e565b91506114ce82610f5e565b91506114d982610dde565b91506114e482610e9e565b91506114ef82610b5e565b91506114fa82610d9e565b91506115058261119e565b9150611510826113de565b915061151b8261131e565b915061152682610e9e565b91506115318261099e565b915061153c82610f1e565b915081905092915050565b600061155382846108df565b915061155e82610d1e565b915061156982610c1e565b91506115748261125e565b915061157f826113de565b915061158a8261109e565b91506115958261111e565b91506115a082610a5e565b91506115ab8261125e565b91506115b6826109de565b91506115c182610fde565b91506115cc8261111e565b91506115d7826112de565b91506115e282610c1e565b91506115ed82610fde565b91506115f88261111e565b915081905092915050565b600061160f82846108df565b915061161a8261119e565b915061162582610d5e565b915061163082610b5e565b915061163b8261119e565b91506116468261119e565b915061165182610b1e565b915061165c82610c5e565b91506116678261111e565b91506116728261139e565b915061167d82610c1e565b91506116888261115e565b915061169382610fde565b915061169e8261119e565b91506116a982610f9e565b91506116b48261099e565b91506116bf82610c5e565b915081905092915050565b60006116d682846108df565b91506116e18261135e565b91506116ec8261131e565b91506116f7826110de565b915061170282610d5e565b915061170d82610fde565b91506117188261105e565b91506117238261119e565b915061172e82610a1e565b915061173982610c1e565b915061174482610cde565b915061174f8261119e565b915061175a82610ede565b915061176582610c9e565b91506117708261099e565b915061177b8261141e565b91506117868261119e565b915081905092915050565b600061179d82846108df565b91506117a8826113de565b91506117b382610a1e565b91506117be82610c1e565b91506117c982610fde565b91506117d482610b5e565b91506117df8261129e565b91506117ea826111de565b91506117f58261125e565b915061180082610a1e565b915061180b8261111e565b9150611816826113de565b91506118218261125e565b915061182c8261129e565b9150611837826112de565b915061184282610fde565b915061184d8261111e565b91506118588261125e565b915081905092915050565b600061186e8261121e565b915061187982610f9e565b915061188482610bde565b915061188f82610fde565b915061189a82610e5e565b91506118a582610ade565b91506118b082610fde565b9150819050919050565b60006118c58261125e565b91506118d082610d5e565b91506118db82610c1e565b91506118e682610a9e565b91506118f18261101e565b9150819050919050565b600060208201905081810360008301526119158184610875565b905092915050565b6000604051905081810181811067ffffffffffffffff8211171561194457611943611b68565b5b8060405250919050565b600067ffffffffffffffff82111561196957611968611b68565b5b601f19601f8301169050602081019050919050565b60008190508160005260206000209050919050565b600081519050919050565b600082825260208201905092915050565b600081905092915050565b60006119c582611a82565b91506119d083611a82565b9250827f800000000000000000000000000000000000000000000000000000000000000001821260008412151615611a0b57611a0a611b0a565b5b827f7fffffffffffffffffffffffffffffffffffffffffffffffffffffffffffffff018213600084121615611a4357611a42611b0a565b5b828203905092915050565b6000611a5982611a8c565b9150611a6483611a8c565b925082821015611a7757611a76611b0a565b5b828203905092915050565b6000819050919050565b6000819050919050565b82818337600083830152505050565b60005b83811015611ac3578082015181840152602081019050611aa8565b83811115611ad2576000848401525b50505050565b60006002820490506001821680611af057607f821691505b60208210811415611b0457611b03611b39565b5b50919050565b7f4e487b7100000000000000000000000000000000000000000000000000000000600052601160045260246000fd5b7f4e487b7100000000000000000000000000000000000000000000000000000000600052602260045260246000fd5b7f4e487b7100000000000000000000000000000000000000000000000000000000600052604160045260246000fd5b6000601f19601f8301169050919050565b611bb181611a82565b8114611bbc57600080fd5b5056fea2646970667358221220358b0ba5ebe280f80ce7ac0a2692ec2cec6e10ff0f7f3986d9346410fb382e0c64736f6c63430008000033",
  "linkReferences": {},
  "deployedLinkReferences": {}
}